:1000000098C00000B5C00000B3C00000B1C000003F
:10001000AFC00000ADC00000ABC00000A9C0000030
:10002000A7C000000C94610BA3C0000010C7000023
:100030009FC000009DC00000F3C6000099C00000F2
:1000400097C0000095C0000093C0000091C0000060
:100050008FC000008DC000008BC0000089C0000070
:1000600087C0000085C0000083C0000081C0000080
:100070007FC000007DC000007BC0000079C0000090
:1000800077C0000075C0000073C000000664EC1B60
:100090003C04BC163E3BE5B93CC93C37C29E5A3DC8
:1000A000660498083EEA69AAAA3E000000803F075D
:1000B000634236B79BD8A71A39685618AEBAAB5503
:1000C0008C1D3CB7CC5763BD6DEDFD753EF61772C8
:1000D00031BF000000803F08000000BE922449129A
:1000E0003EABAAAA2ABECDCCCC4C3E00000080BEBE
:1000F000ABAAAAAA3E00000000BF000000803F009B
:1001000000000000084178D3BB4387D1133D190E8E
:100110003CC3BD4282AD2B3E68EC8276BED98FE1F6
:10012000A93E4C80EFFFBE01C4FF7F3F00000000EE
:10013000000011241FBECFEFD0E1DEBFCDBF13E022
:10014000A0E0B1E0ECE2F7E200E00BBF02C00790F4
:100150000D92A835B107D9F724E0A8E5B3E001C0B6
:100160001D92A634B207E1F70E94980A0C949413EA
:1001700047CFCF93DF93CDB7DEB762970FB6F89432
:10018000DEBF0FBECDBF65D586E0E0E1F1E0DE0168
:10019000119601900D928A95E1F786E0E6E1F1E093
:1001A000DE01179601900D928A95E1F780E18D8727
:1001B00090E29E8790E49F87888B898B8A8B9E0133
:1001C000295F3F4FAE014F5F5F4F66E070E080E018
:1001D00090E0FED49E01205F3F4FAE01435F5F4F32
:1001E00063E070E081E090E0F3D462960FB6F8949B
:1001F000DEBF0FBECDBFDF91CF91089597B18F7154
:10020000982B97B9369A3699FECF84B195B1089557
:10021000CF92DF92EF92FF920F931F93CF93DF93D2
:10022000CDB7DEB7EC970FB6F894DEBF0FBECDBFEB
:100230007E018DE3E80EF11C8E010F5F1F4FC12C74
:10024000D12C82E0DBDFF801819391938F0182E072
:10025000D5DFC80ED91E0E151F0599F7C6016EE130
:1002600070E00E94540F062F172FAB01465F5F4FBF
:100270006A507109FE01319680E090E0DF01208133
:100280003181421753071CF02617370724F40C93CB
:1002900011961C93119732962D913C91820F931FCA
:1002A000EE15FF0559F76EE170E00E94540FCB0187
:1002B000EC960FB6F894DEBF0FBECDBFDF91CF91A5
:1002C0001F910F91FF90EF90DF90CF90089580ECF9
:1002D00087B987E886B90895DE9A90E00E944B0BB3
:1002E000DE988BB3807F8BBB0895CF93C82FDC98AB
:1002F0008BB39C2F92959F70892B8BBB82E0ECDF98
:100300008BB3CF70C82BCBBB82E0E6DFDC9ACF91FA
:10031000089582E0EACF08958FEF8ABB83E08BBB1C
:10032000DE9A81E090E00E944B0BDE9885E090E041
:100330000E944B0BDE9A81E090E00E944B0BDE980E
:10034000DE9A81E090E00E944B0BDE9882E08BBB4E
:1003500081E0C2DF8BB38BBB81E0BEDF8BB38E60ED
:100360008BBB81E0B9DF8BB38BBB81E0B5DF8BB397
:1003700086608BBB81E0B0DF8BB38BBB81E0ACDFF1
:10038000D89A81E0A9DFDC9AC4CF0895FC0183816B
:10039000811135C0828181110AC08581811107C018
:1003A0008481811104C010925903109258038281F4
:1003B000882351F010925D0310925C0381E090E07D
:1003C00090935903809358038581882351F01092AC
:1003D0005D0310925C0384E090E090935903809356
:1003E000580384818823B1F010925D0310925C035E
:1003F00083E090E0909359038093580308951092FE
:100400005D0310925C0382E090E090935903809327
:100410005803CDCF0895EF92FF920F931F93CF9380
:10042000DF938C01EB012097F9F06CE97FEF8CE909
:100430009FEFB7D37E01EE0CFF1CCC0FDD1FCC0F5E
:10044000DD1FCC0FDD1FEC0EFD1E1E141F0464F01B
:10045000C0E0D0E0C801FDD3F80184859585C80FC0
:10046000D91FCE15DF05B4F760E070E080E090E0C2
:1004700098D310925D0310925C0310925B0310926C
:100480005A031092590310925803DF91CF911F9194
:100490000F91FF90EF9008958E37910564F46638C0
:1004A000E2E07E0744F44D32E5E05E0724F42730B5
:1004B000E4E03E073CF081E090E090935D038093A0
:1004C0005C03089546974CF06234710534F0483966
:1004D00051051CF02637310534F482E090E090930A
:1004E0005D0380935C03089510925B0310925A039E
:1004F0006130710551F44115510599F481E090E0A6
:1005000090935B0380935A0308954130510591F411
:10051000672B81F482E090E090935B0380935A0311
:1005200008954130510531F483E090E090935B03EE
:1005300080935A030895EF92FF920F931F93CF93E6
:10054000DF93EC018B0168EC70E088EC90E029D33C
:10055000CE017FD36881462F41706695617050E06F
:1005600070E0CE01C1DF28A139A14AA15BA16C8D49
:100570007D8D8E8D9F8D90DFCE0108DF7801EE0C92
:10058000FF1C000F111F000F111F000F111FE00EA5
:10059000F11EFF200CF444C0809158039091590340
:1005A000892B09F03DC080915C0390915D03892BFC
:1005B000B9F580915A0390915B03892B89F500E08E
:1005C00010E0CE0146D36881462F41706695617078
:1005D00050E070E0CE0188DFCE01D8DE28A139A13D
:1005E0004AA15BA16C8D7D8D8E8D9F8D55DF8C8595
:1005F0009D85080F191FE016F10694F080915803AD
:1006000090915903892B61F480915C0390915D0373
:10061000892B31F480915A0390915B03892B89F2E5
:1006200060E070E080E090E0BCD2CE01AFDE80916F
:100630005C0390915D03019729F467E170E08CE120
:1006400091E0B6D780915C0390915D03029729F405
:1006500067E170E083E391E0ABD780915A0390911A
:100660005B03019729F469E170E08AE491E0A0D787
:1006700080915A0390915B03029729F46AE170E03C
:1006800083E691E095D780915A0390915B0303979D
:1006900029F46AE170E08DE791E08AD780915803F0
:1006A00090915903019729F46FE170E087E991E097
:1006B0007FD78091580390915903029729F465E2FE
:1006C00070E086EB91E074D78091580390915903C4
:1006D000039729F466E270E08BED91E069D7809191
:1006E000580390915903049729F460E270E081E087
:1006F00092E05ED7DF91CF911F910F91FF90EF9025
:100700000895EF92FF920F931F93CF93DF93EC0125
:100710007B0168EC70E088E39FEF43D2CE0199D271
:1007200028A139A14AA15BA16C8D7D8D8E8D9F8DF5
:10073000B3DECE012BDE6881462F41706695617075
:1007400050E070E0CE01D0DE80910601909107016B
:100750008E0D9F1D181619060CF44BC0809158037E
:1007600090915903892B09F044C080915C039091CA
:100770005D03892B09F03DC080915A0390915B0382
:10078000892BB9F500E010E0CE0163D26881462FD5
:1007900041706695617050E070E0CE01A5DE28A141
:1007A00039A14AA15BA16C8D7D8D8E8D9F8D74DEEC
:1007B000CE01ECDD8E859F85080F191F8091060103
:1007C000909107018E0D9F1D0817190794F08091D5
:1007D000580390915903892B61F480915C039091A7
:1007E0005D03892B31F480915A0390915B03892B2F
:1007F00059F260E070E080E090E0D3D1CE01C6DD38
:10080000DF91CF911F910F91FF90EF900895CF92BC
:10081000DF92EF92FF920F931F93CF93DF93EC0140
:100820007B0168EC70E088E39FEFBBD1CE0111D271
:1008300028A139A14AA15BA16C8D7D8D8E8D9F8DE4
:100840002BDECE01A3DD6881462F41706695617075
:1008500050E070E0CE0148DE8091060190910701E2
:100860008E0D9F1D06970CF054C0809158039091F7
:100870005903892B09F04DC080915C0390915D0371
:10088000892B09F046C080915A0390915B03892B14
:1008900009F03FC000E010E00F2EF6E0CF2ED12C83
:1008A000F02DCE01D6D16881462F417066956170DA
:1008B00050E070E0CE0118DE28A139A14AA15BA169
:1008C0006C8D7D8D8E8D9F8DE7DDCE015FDD8E85FC
:1008D0009F85080F191F80910601909107018E0DC9
:1008E0009F1DB6010E94540F0617170794F08091C0
:1008F000580390915903892B61F480915C03909186
:100900005D03892B31F480915A0390915B03892B0D
:1009100041F260E070E080E090E043D1CE0136DD4E
:10092000DF91CF911F910F91FF90EF90DF90CF90CB
:100930000895EF92FF920F931F93CF93DF93EC01F3
:100940007B0168E37FEF88EC90E02BD1CE0181D171
:1009500028A139A14AA15BA16C8D7D8D8E8D9F8DC3
:100960009BDDCE0113DD8091060190910701970177
:10097000281B390BC90199230CF44CC080915803F2
:1009800090915903892B09F045C080915C039091A7
:100990005D03892B09F03EC080915A0390915B035F
:1009A000892BC1F500E010E0CE0153D16881462FBC
:1009B00041706695617050E070E0CE0195DD28A130
:1009C00039A14AA15BA16C8D7D8D8E8D9F8D64DDDB
:1009D000CE01DCDC8E859F85080F191F80910601F2
:1009E000909107019701281B390B2017310794F0CC
:1009F0008091580390915903892B61F480915C0395
:100A000090915D03892B31F480915A0390915B039F
:100A1000892B51F260E070E080E090E0C2D0CE011E
:100A2000B5DCDF91CF911F910F91FF90EF9008956A
:100A3000CF92DF92EF92FF920F931F93CF93DF93AA
:100A4000EC017B0168E37FEF88EC90E0AAD0CE0157
:100A500000D128A139A14AA15BA16C8D7D8D8E8D1D
:100A60009F8D1ADDCE0192DC8091060190910701E5
:100A70009701281B390BC9018B3F9F4F0CF456C0BF
:100A80008091580390915903892B09F04FC08091B0
:100A90005C0390915D03892B09F048C080915A0353
:100AA00090915B03892B09F041C000E010E00F2E0C
:100AB000F6E0CF2ED12CF02DCE01CBD06881462F81
:100AC00041706695617050E070E0CE010DDD28A1A7
:100AD00039A14AA15BA16C8D7D8D8E8D9F8DDCDC53
:100AE000CE0154DC8E859F85080F191F8091060169
:100AF000909107019701281B390BC901B6010E948B
:100B0000540F6017710794F0809158039091590326
:100B1000892B61F480915C0390915D03892B31F402
:100B200080915A0390915B03892B31F260E070E071
:100B300080E090E036D0CE0129DCDF91CF911F918B
:100B40000F91FF90EF90DF90CF90089564E370E0F5
:100B500081E090E00C948A0F0895EBE9F0E0908139
:100B600095FFFDCF80939C0008950F931F93CF9323
:100B7000DF93082F162FD42FC22F8BE8EEDF11231F
:100B800029F081E0011103C080E001C080E0E5DFD1
:100B90008D2FE3DF8C2FE1DFDF91CF911F910F913C
:100BA00008950F931F93CF93DF93182F092FC62F0C
:100BB000D72F81E9D2DF802FD0DF812FCEDF8D2F9D
:100BC000CCDF8C2FCADFDF91CF911F910F91089559
:100BD000AF92BF92CF92DF92EF92FF920F931F934B
:100BE000CF93DF93C82F7B016A01A22EB32E8CE82E
:100BF000B4DF8C2FB2DF8E2DB0DF1E141F0474F40F
:100C0000E6010A2D1B2DEC0CFD1C8991A6DFF801D5
:100C100081918F01A2DFCE15DF05B9F7DF91CF916A
:100C20001F910F91FF90EF90DF90CF90BF90AF900A
:100C30000895CF93C82F8DE890DF8C2F8EDFCF9152
:100C40000895EBE9F0E080818823ECF780919C0027
:100C50000895EF92FF920F931F93CF93DF937C0140
:100C600080919B00882344F4ACE9B0E0EBE9F0E02C
:100C70008C9180818823E4F38EE86FDF86E06DDF5E
:100C8000E70187010C5C1F4FDCDF8993C017D10798
:100C9000D9F7F701848590E0982F88272585820F62
:100CA000911D95878487868590E0982F88272785D2
:100CB000820F911D97878687818990E0982F8827DA
:100CC0002289820F911D928B818B838990E0982FCE
:100CD00088272489820F911D948B838B868990E0CD
:100CE000982F88272789820F911D978B868B808D5F
:100CF00090E0982F8827218D820F911D918F808FF2
:100D0000828D90E0982F8827238D820F911D938FDD
:100D1000828F848D90E0982F8827258D820F911DDA
:100D2000958F848F868D90E0982F8827278D820F4E
:100D3000911D978F868F80A190E0982F882721A101
:100D4000820F911D91A380A382A190E0982F882704
:100D500023A1820F911D93A382A382A590E021A5D8
:100D600030E0322F2227280F391F36A325A320A9D0
:100D700030E0322F2227820F931F95A784A782A9E4
:100D800090E0982F882723A9820F911D97A786A707
:100D900084A990E0982F882725A9820F911D91ABF7
:100DA00080AB86A990E0982F882727A9820F911DF4
:100DB00093AB82AB83E290E06ED4DF91CF911F9131
:100DC0000F91FF90EF9008950F931F93CF93DF93B0
:100DD000EC0109E910E080E1F801808388E180936B
:100DE0009A0086E080939D0080E8B7DE81E8B5DE5A
:100DF00088E0B3DE84E690E04ED481E2F80180839F
:100E000084E8ABDE2FEF47E061E081E0AEDECE01AB
:100E100020DFCE011EDFDF91CF911F910F9108954A
:100E20001F920F920FB60F9211248F939F93809170
:100E30006A0390916B03019690936B0380936A030E
:100E40009F918F910F900FBE0F901F9018951F923A
:100E50000F920FB60F9211240BB60F922F933F9360
:100E60004F935F936F937F938F939F93AF93BF93B2
:100E7000EF93FF93809164039091650301969093A3
:100E80006503809364030EB406FE0FC086B597B564
:100E9000A0E0B0E08093700390937103A09372037D
:100EA000B09373038EB58F7B8EBD46B557B58091D9
:100EB000700390917103A0917203B091730360E08D
:100EC00070E0481759076A077B07A1F481E090E0BA
:100ED000E2D346B557B58091700390917103A0910C
:100EE0007203B091730360E070E0481759076A0716
:100EF0007B0761F30EB406FC2BC086B597B5A0E066
:100F0000B0E080936C0390936D03A0936E03B09355
:100F10006F0380916C0390916D03A0916E03B0916B
:100F20006F0340917003509171036091720370914F
:100F30007303841B950BA60BB70B809366039093EA
:100F40006703A0936803B09369038EB580648EBD78
:100F50008EB580648EBDFF91EF91BF91AF919F914F
:100F60008F917F916F915F914F913F912F910F9052
:100F70000BBE0F900FBE0F901F90189587B78B7DFB
:100F800087BF8C9A949A81E090E085D3949881E011
:100F900090E081D38C9886B7806286BF87B78462E1
:100FA00087BF81E090E077C308958F929F92AF92C0
:100FB000BF92CF92DF92EF92FF92BC01882777FD1C
:100FC0008095982F9CD426E73EEC4EE85DE327D52C
:100FD0002DE73BE749E650E493D36B017C015CD4F9
:100FE0004B015C01882777FD8095982F88D49B0161
:100FF000AC01C701B60183D320E030E040E05FE3FD
:101000000AD5181654F420E030E040E85FE3C70149
:10101000B60176D341D4CB0101C0C401FF90EF905B
:10102000DF90CF90BF90AF909F908F900895CF9218
:10103000DF92EF92FF926B017C01A0DFC601B5DF6A
:10104000BC01882777FD8095982FFF90EF90DF9067
:10105000CF9008951FBC83EC8EBD10927A0087B7A5
:10106000806287BF08952F923F924F925F926F9256
:101070007F928F929F92AF92BF92CF92DF92EF9228
:10108000FF920F931F93CF93DF936C0180E090E06A
:10109000C4D288EE93E0FFD2AA24A394B12CE12C11
:1010A000F12C00E010E0C0E0D0E033243394212C98
:1010B000CE01B3D22196609166037091670380914F
:1010C000680390916903B3DF8AE090E0E4D28091F5
:1010D000660390916703A0916803B091690365DF8F
:1010E000AA2797FDA095BA2F809360039093610380
:1010F000A0936203B09363038BD89093750380939E
:101100007403BC01882777FD8095982FF8D328EFCA
:1011100033E543E65FEBE6D420E038EC43E155E409
:101120007ED4BAD39B0170935F0360935E036535F1
:10113000710504F5E114F104E9F4F801EE0FFF1F65
:10114000C801880F991F880F991F880F991FE80FF2
:10115000F91FEC0DFD1DD183C083138212823682EC
:101160002782308621860F5F1F4FA12CB12CE32CE4
:10117000F22C59C02639310534F481E0E816F10427
:1011800009F074C050C0273931050CF46FC0E1E09C
:10119000EE16F10409F06AC044C0C801880F991F17
:1011A000880F991F880F991F3801660C771C680EED
:1011B000791EFAE06F1A71086C0C7D1CF301268110
:1011C000378182819381B9016FD62B01738362834A
:1011D000B901882777FD8095982F91D323EC35EFBF
:1011E00048E450E41CD420E030E044EB53E4ECD27B
:1011F000C5D44B015C01440C551CB201882777FD16
:101200008095982F7CD3A501940109D445D3F3018F
:1012100075836483A32CB22CC43BD10509F048CF5D
:101220002AC0E12CF12CC801880F991F880F991F43
:10123000880F991FF801EE0FFF1FE80FF91F3A976B
:10124000EC0DFD1D868197810196978386834091E1
:101250006003509161036091620370916303828126
:101260009381480F591F53834283D6CFA114B104F1
:1012700009F493CFD1CFDF91CF911F910F91FF90C0
:10128000EF90DF90CF90BF90AF909F908F907F9026
:101290006F905F904F903F902F9008958F929F9204
:1012A000AF92BF92CF92DF92EF92FF920F931F9374
:1012B000CF93DF93CDB7DEB7A8970FB6F894DEBF14
:1012C0000FBECDBF182FE62EF72E40DC6C017CDD63
:1012D00060E070E080E090E064DC1737A1F464E146
:1012E00070E081E292E064D160910801709109019F
:1012F000C60121D960E070E080E090E052DC82E33A
:1013000090E0C9D130C01337C1F465E170E085E3E6
:1013100092E04ED12091080130910901662777278C
:10132000621B730BC60177D860E070E080E090E04C
:1013300038DC82E390E0AFD12CC01136A1F46AE230
:1013400070E08AE492E034D160910A0170910B015F
:10135000C601EFDA60E070E080E090E022DC82E33A
:1013600090E099D12FC01137A1F46AE270E084E7D0
:1013700092E01ED160910A0170910B01C60158DB09
:1013800060E070E080E090E00CDC82E390E083D1EC
:1013900032C01436B9F463E270E08EE992E008D10D
:1013A00060910A0170910B01719561957109C601F7
:1013B000A8D960E070E080E090E0F3DB82E390E0A9
:1013C0006AD167C01536B9F463E270E081EC92E04F
:1013D000EFD060910A0170910B01719561957109CF
:1013E000C60115DA60E070E080E090E0DADB82E3CD
:1013F00090E051D180C0123709F04BC06EE070E030
:1014000084EE92E0D5D08E2D9F2D2DDE0E2D1F2D3A
:101410000F2EF4E1EF2EF12CF02D0F2EF2EF8F2E88
:10142000F2E09F2EF02D0F2EF1E2AF2EF3E0BF2E53
:10143000F02DF80180859185892BE9F085818F93C6
:1014400084818F9383818F9382818F9381818F9306
:1014500080818F939F928F92BF92AF92A3D68AE0A2
:1014600090E019D16FE270E0C501A2D00FB6F894F8
:10147000DEBF0FBECDBF91E0E91AF108065F1F4F36
:10148000E114F104B1F660E070E0C6010E940B02C5
:101490003CC0133681F5F60181A18F9380A18F9313
:1014A00083A18F9382A18F93858D8F93848D8F934A
:1014B000878D8F93868D8F9383E293E09F938F9395
:1014C0008E010F5F1F4F1F930F936CD668E270E081
:1014D000C8016ED0F60120A131A142A153A1648DB3
:1014E000758D868D978D0E944C020FB6F894DEBFE5
:1014F0000FBECDBF0AC0143741F462E170E086E44C
:1015000093E056D080E090E094DBA8960FB6F89474
:10151000DEBF0FBECDBFDF91CF911F910F91FF9026
:10152000EF90DF90CF90BF90AF909F908F900895F5
:101530000E948C018FDD55D08AE590E06ED00E942C
:10154000670180E190E027D0D3D000DBEC013CDCE8
:10155000CE010E94B90080E090E0D0E0C0E011C070
:10156000FC01EE0FFF1F9C01220F331F220F331FC0
:10157000220F331FE20FF31FEA58FC4F118610862B
:1015800001968431910564F328D066E773E086DE26
:101590008D2F9C2FF6CF9093900089B988E18AB95E
:1015A0008EE08093950008955D9BFECF8CB90895E1
:1015B0000F931F93CF93DF93161617064CF4EC018D
:1015C0008C01060F171F8991EFDFC017D107D9F7DC
:1015D000DF91CF911F910F9108955F9BFECF8CB14A
:1015E000089580910E0190910F01019790938700CB
:1015F0008093860080910C0190910D01019790934A
:101600008500809384008BEA80938B008CE8809324
:101610008A0010928C00149A08954CE69C01429F17
:10162000C001439F900D11249C01285C3B4FA3E80F
:10163000BDE24DD496958795929582958F708927B6
:101640009F7089274D9690933F0480933E0490931A
:1016500085008093840085E090E01DC0089510927D
:10166000410410924004811106C08BE085BD87B70C
:10167000806887BF07C0813029F489E085BD87B7BE
:10168000806887BF7894089587B78F7787BF85B5BF
:101690008F7785BD0895CF93DF93EC018AEF83BDEB
:1016A000109241041092400480E0D9DF2091400460
:1016B000309141042C173D07C8F3E6DFDF91CF914D
:1016C00008951F920F920FB60F9211248F939F933C
:1016D000809140049091410401969093410480933D
:1016E00040049F918F910F900FBE0F901F901895FF
:1016F00084B3807C84BB85B38F6385BB08955058C9
:10170000BB27AA270ED04DC13ED130F043D120F0E7
:1017100031F49F3F11F41EF433C10EF4E095E7FB62
:1017200029C1E92F4FD180F3BA17620773078407E5
:10173000950718F071F49EF567C10EF4E0950B2E35
:10174000BA2FA02D0B01B90190010C01CA01A00113
:101750001124FF27591B99F0593F50F4503E68F16E
:101760001A16F040A22F232F342F4427585FF3CFAF
:10177000469537952795A795F0405395C9F77EF480
:101780001F16BA0B620B730B840BBAF09150A1F0C9
:10179000FF0FBB1F661F771F881FC2F70EC0BA0F4F
:1017A000621F731F841F48F4879577956795B795D7
:1017B000F7959E3F08F0B3CF9395880F08F09927CF
:1017C000EE0F9795879508950CD0EBC0E3D040F0CD
:1017D000DAD030F021F45F3F19F0CCC0511115C1BF
:1017E000CFC0F0D098F39923C9F35523B1F3951BDB
:1017F000550BBB27AA2762177307840738F09F5F32
:101800005F4F220F331F441FAA1FA9F333D00E2EA0
:101810003AF0E0E830D091505040E695001CCAF70D
:1018200029D0FE2F27D0660F771F881FBB1F2617D2
:1018300037074807AB07B0E809F0BB0B802DBF01A5
:10184000FF2793585F4F2AF09E3F510568F092C0E2
:10185000DCC05F3FECF3983EDCF3869577956795A7
:10186000B795F7959F5FC9F7880F911D9695879556
:1018700097F90895E1E0660F771F881FBB1F621775
:1018800073078407BA0720F0621B730B840BBA0B33
:10189000EE1F88F7E095089504D06894B111B5C0A3
:1018A000089598D088F09F5790F0B92F9927B75195
:1018B000A0F0D1F0660F771F881F991F1AF0BA9514
:1018C000C9F712C0B13081F09FD0B1E008959CC03B
:1018D000672F782F8827B85F39F0B93FCCF386950A
:1018E00077956795B395D9F73EF490958095709567
:1018F00061957F4F8F4F9F4F0895E89409C097FBE4
:101900003EF490958095709561957F4F8F4F9F4FD6
:101910009923A9F0F92F96E9BB279395F69587951A
:1019200077956795B795F111F8CFFAF4BB0F11F4DD
:1019300060FF1BC06F5F7F4F8F4F9F4F16C0882384
:1019400011F096E911C0772321F09EE8872F762FBA
:1019500005C0662371F096E8862F70E060E02AF0FB
:101960009A95660F771F881FDAF7880F96958795E7
:1019700097F9089597F99F6780E870E060E008950F
:101980009FEF80EC089500240A9416161706180697
:101990000906089500240A94121613061406050673
:1019A0000895092E0394000C11F4882352F0BB0F04
:1019B00040F4BF2B11F460FF04C06F5F7F4F8F4F67
:1019C0009F4F089557FD9058440F551F59F05F3FA2
:1019D00071F04795880F97FB991F61F09F3F79F051
:1019E00087950895121613061406551FF2CF4695D3
:1019F000F1DF08C0161617061806991FF1CF869555
:101A00007105610508940895E894BB276627772738
:101A1000CB0197F9089503D108F48FEF08950BD007
:101A2000C0CFB1DF28F0B6DF18F0952309F0A2CFC0
:101A3000A7CF1124EACFC6DFA0F3959FD1F3950F6E
:101A400050E0551F629FF001729FBB27F00DB11D42
:101A5000639FAA27F00DB11DAA1F649F6627B00DD2
:101A6000A11D661F829F2227B00DA11D621F739FBB
:101A7000B00DA11D621F839FA00D611D221F749FC9
:101A80003327A00D611D231F849F600D211D822F10
:101A9000762F6A2F11249F5750408AF0E1F0882357
:101AA0004AF0EE0FFF1FBB1F661F771F881F915064
:101AB0005040A9F79E3F510570F05CCFA6CF5F3F25
:101AC000ECF3983EDCF3869577956795B795F79597
:101AD000E7959F5FC1F7FE2B880F911D969587951F
:101AE00097F90895FA01EE0FFF1F30962105310591
:101AF00099F16115710561F48038BFE39B0749F1E5
:101B000068949038810561F08038BFEF9B0741F001
:101B1000992342F5FF3FE1053105210511F1E894D4
:101B20000894E795D901AA2329F4AB2FBE2FF85FBB
:101B3000D0F310C0FF5F70F4A695E0F7F73950F0CE
:101B400019F0FF3A38F49F779F930CD00F9007FC61
:101B5000905808953EF014CF60E070E080E89FE375
:101B600008954FE79F775F934F933F932F931BD138
:101B70002F913F914F915F9152DF25C0DF93D92F75
:101B8000A9D0E695D7952AED3FE049E45FE3B33A63
:101B90006207730784079507D7952AF0A2EA49ECF4
:101BA0009068BFDDFEDEECE8F0E082D0DD0F0BF0E8
:101BB000B8D0DD0F0BF49058DF91089519F40EF0B2
:101BC000D9CE22CFDDCE06DFC8F39638C0F707F8AE
:101BD0000F92E8942BE33AEA48EB5FE72EDF0F928F
:101BE0000F920F924DB75EB70F921DD1EFEAF0E062
:101BF0003AD04F915F91EF91FF91E595EE1FFF1F56
:101C000049F0FE57E0684427EE0F441FFA95E1F7CC
:101C10004195550B8FD00F9007FE83C00895990F03
:101C20000008550FAA0BE0E8FEEF16161706E807A6
:101C3000F907C0F012161306E407F50798F0621BC7
:101C4000730B840B950B39F40A2661F0232B242B9C
:101C5000252B21F408950A2609F4A140A6958FEFBB
:101C6000811D811D0895DF93CF931F930F93FF92E2
:101C7000EF92DF927B018C01689405C0DA2EEF01B0
:101C8000DADEFE01E894A5912591359145915591B3
:101C9000AEF3EF0146DDFE019701A801DA9479F772
:101CA000DF90EF90FF900F911F91CF91DF910895FA
:101CB0009F938F937F936F93FF93EF939B01AC015F
:101CC000AEDEEF91FF91CFDF2F913F914F915F916A
:101CD000A6CE56CE7FDEE8F3E894E0E0BB279F5720
:101CE000F0F02AED3FE049EC06C0EE0FBB0F661F97
:101CF000771F881F28F0B23A62077307840728F01D
:101D0000B25A620B730B840BE3959A9572F7803885
:101D100030F49A95BB0F661F771F881FD2F7904843
:101D2000B7C09B01AC0160E070E080E89FE34CCD60
:101D300021CEACC04FDEE8F39923D9F3940F511DA7
:101D4000BBF39150504094F059F0882332F0660F65
:101D5000771F881F91505040C1F79E3F510544F7AF
:101D6000880F911D9695879597F908955F3FACF080
:101D7000983E9CF0BB27869577956795B79508F4B4
:101D8000B1609395C1F7BB0F58F711F460FFE8CF2E
:101D90006F5F7F4F8F4F9F4FE3CF37CE0EF076C0F0
:101DA000EFCD6894E7CD16DEC8F39923D1F3C6F3DF
:101DB000DF93CF931F930F93FF92C92FDD278823C3
:101DC0002AF02197660F771F881FDAF720E030E0AE
:101DD00040E85FEB9FE3883920F0803E30F02196A9
:101DE0008F778EDCE7EDF0E003C08ADCE4E0F1E021
:101DF0003ADF8B01BE01EC01FB2E6F57710975951F
:101E0000771F880B990B7BDD28E132E741E35FE325
:101E100012DEAF2D9801AE01FF900F911F91CF916F
:101E2000DF917FDCBECDFA01DC01AA0FBB1F9B0155
:101E3000AC01BF5728F422273327442750781FC00E
:101E4000B75188F4AB2F0024469537952795011C90
:101E5000A395D2F3002069F0220F331F441FB395DE
:101E6000DAF30DD04CCC61307105A0E88A07B94691
:101E700030F49B01AC01662777278827907830964D
:101E800021F0208331834283538308959F3F31F0B3
:101E9000915020F4879577956795B795880F911D98
:101EA0009695879597F9089597FB072E16F4009459
:101EB00006D077FD08D01AD007FC05D03EF49095E7
:101EC00081959F4F0895709561957F4F0895A29FCA
:101ED000B001B39FC001A39F700D811D1124911DFE
:101EE000B29F700D811D1124911D0895AA1BBB1B6B
:101EF00051E107C0AA1FBB1FA617B70710F0A61B0A
:101F0000B70B881F991F5A95A9F780959095BC012A
:101F1000CD0108950F931F93CF93DF93869F800188
:101F2000879F100D969F100D1124C8010DD0EC0154
:101F3000009721F0A80160E070E02DD1CE01DF9183
:101F4000CF911F910F910895CF93DF938230910528
:101F500010F482E090E0E0914404F091450420E028
:101F600030E0A0E0B0E0309739F14081518148176E
:101F70005907B8F04817590771F482819381109777
:101F800029F013969C938E9312972CC0909345043E
:101F90008093440427C02115310531F042175307BF
:101FA00018F0A901DB0101C0EF019A01BD01DF01B9
:101FB0000280F381E02DD7CF21153105F9F0281BE0
:101FC000390B2430310580F48A819B8161157105BC
:101FD00021F0FB019383828304C090934504809396
:101FE0004404FE01329644C0FE01E20FF31F8193C8
:101FF000919322503109398328833AC020914204B9
:1020000030914304232B41F42091020130910301CC
:102010003093430420934204209100013091010148
:102020002115310541F42DB73EB74091040150917F
:102030000501241B350BE0914204F0914304E217A3
:10204000F307A0F42E1B3F0B2817390778F0AC01DB
:102050004E5F5F4F2417350748F04E0F5F1F5093B8
:102060004304409342048193919302C0E0E0F0E086
:10207000CF01DF91CF910895CF93DF93009709F4BB
:1020800087C0FC01329713821282C0914404D09120
:102090004504209781F420813181280F391F8091D8
:1020A0004204909143048217930779F5F093430417
:1020B000E09342046DC0DE0120E030E0AE17BF07C0
:1020C00050F412964D915C9113979D014115510565
:1020D00009F1DA01F3CFB383A28340815181840FE8
:1020E000951F8A179B0771F48D919C911197840F0E
:1020F000951F02969183808312968D919C911397E0
:10210000938382832115310529F4F0934504E093EC
:1021100044043EC0D9011396FC93EE9312974D915F
:102120005D91A40FB51FEA17FB0779F480819181B7
:10213000840F951F0296D90111969C938E938281EC
:10214000938113969C938E931297E0E0F0E08A813E
:102150009B81009719F0FE01EC01F9CFCE010296A8
:1021600028813981820F931F2091420430914304CA
:102170002817390769F4309729F410924504109212
:10218000440402C013821282D0934304C0934204D9
:10219000DF91CF910895DC0101C06D934150504013
:1021A000E0F708950F931F93CF93DF93CDB7DEB77A
:1021B0002E970FB6F894DEBF0FBECDBF0D891E89D6
:1021C00086E08C831A8309838FEF9FE79E838D833C
:1021D000AE01475E5F4F6F89788DCE01019610D0BA
:1021E000EF81F885E00FF11F10822E960FB6F8945C
:1021F000DEBF0FBECDBFDF91CF911F910F9108952C
:102200002F923F924F925F926F927F928F929F9206
:10221000AF92BF92CF92DF92EF92FF920F931F93F4
:10222000CF93DF93CDB7DEB72C970FB6F894DEBF10
:102230000FBECDBF7C016B018A01FC0117821682A3
:10224000838181FFB0C1CE0101964C01F7019381DA
:10225000F60193FD859193FF81916F01882309F425
:102260009EC1853239F493FD859193FF81916F0171
:10227000853221F4B70190E0C7D1E8CF512C312C41
:1022800020E02032A0F48B3269F030F4803259F033
:10229000833269F420612CC08D3239F0803339F4F7
:1022A000216026C02260246023C0286021C027FD51
:1022B00027C030ED380F3A3078F426FF06C0FAE038
:1022C0005F9E300D1124532E13C08AE0389E300DCE
:1022D0001124332E20620CC08E3221F426FD5FC102
:1022E000206406C08C3611F4206802C0883641F4A0
:1022F000F60193FD859193FF81916F018111C1CF0B
:10230000982F9F7D9554933028F40C5F1F4FFFE367
:10231000F9830DC0833631F0833771F0833509F0CE
:1023200057C021C0F801808189830E5F1F4F44246C
:102330004394512C540114C03801F2E06F0E711C0B
:10234000F801A080B18026FF03C0652D70E002C0B7
:102350006FEF7FEFC5012C874CD12C0183012C85B9
:102360002F77222E16C03801F2E06F0E711CF80193
:10237000A080B18026FF03C0652D70E002C06FEF22
:102380007FEFC5012C872AD12C012C852068222EB5
:10239000830123FC19C0832D90E048165906A0F450
:1023A000B70180E290E030D13A94F5CFF50127FCF7
:1023B000859127FE81915F01B70190E025D1311011
:1023C0003A94F1E04F1A51084114510479F7DEC0F4
:1023D000843611F0893631F5F80127FF07C0608196
:1023E0007181828193810C5F1F4F08C06081718170
:1023F000882777FD8095982F0E5F1F4F2F76B22E7E
:1024000097FF09C090958095709561957F4F8F4F8C
:102410009F4F2068B22E2AE030E0A40127D1A82ED9
:10242000A81843C0853729F42F7EB22E2AE030E069
:1024300025C0F22FF97FBF2E8F36C1F018F48835F2
:1024400079F0ADC0803719F0883721F0A8C02F2F60
:102450002061B22EB4FE0DC08B2D8460B82E09C051
:1024600024FF0AC09F2F9660B92E06C028E030E0F6
:1024700005C020E130E002C020E132E0F801B7FE03
:1024800007C060817181828193810C5F1F4F06C0FC
:102490006081718180E090E00E5F1F4FA401E6D063
:1024A000A82EA818FB2DFF77BF2EB6FE0BC02B2D34
:1024B0002E7FA51450F4B4FE0AC0B2FC08C02B2D28
:1024C0002E7E05C07A2C2B2D03C07A2C01C0752CD2
:1024D00024FF0DC0FE01EA0DF11D8081803311F44F
:1024E000297E09C022FF06C07394739404C0822F12
:1024F000867809F0739423FD12C020FF06C05A2C81
:10250000731418F4530C5718732C731460F4B70138
:1025100080E290E02C8778D073942C85F6CF7314EA
:1025200010F4371801C0312C24FF11C0B70180E32B
:1025300090E02C8769D02C8522FF16C021FF03C0B4
:1025400088E590E002C088E790E0B7010CC0822FD8
:10255000867851F021FD02C080E201C08BE227FDA8
:102560008DE2B70190E050D0A51430F4B70180E3BC
:1025700090E04AD05A94F8CFAA94F401EA0DF11DE4
:102580008081B70190E040D0A110F6CF332009F44C
:102590005DCEB70180E290E037D03A94F7CFF701F3
:1025A0008681978102C08FEF9FEF2C960FB6F8942B
:1025B000DEBF0FBECDBFDF91CF911F910F91FF9076
:1025C000EF90DF90CF90BF90AF909F908F907F90D3
:1025D0006F905F904F903F902F900895FC01059071
:1025E000615070400110D8F7809590958E0F9F1F15
:1025F0000895FC016150704001900110D8F780955A
:1026000090958E0F9F1F08950F931F93CF93DF9385
:10261000182F092FEB018B8181FD03C08FEF9FEFF6
:1026200020C082FF10C04E815F812C813D81421706
:1026300053077CF4E881F9819F012F5F3F4F398375
:102640002883108306C0E885F985812F0995892B99
:1026500029F72E813F812F5F3F4F3F832E83812FAC
:10266000902FDF91CF911F910F910895FA01AA2722
:10267000283051F1203181F1E8946F936E7F6E5FC5
:102680007F4F8F4F9F4FAF4FB1E03ED0B4E03CD073
:10269000670F781F891F9A1FA11D680F791F8A1F56
:1026A000911DA11D6A0F711D811D911DA11D20D0BD
:1026B00009F468943F912AE0269F11243019305D77
:1026C0003193DEF6CF010895462F4770405D419368
:1026D000B3E00FD0C9F7F6CF462F4F70405D4A33B5
:1026E00018F0495D31FD4052419302D0A9F7EACF7D
:1026F000B4E0A6959795879577956795BA95C9F7AC
:1027000000976105710508959B01AC010A2E06949E
:102710005795479537952795BA95C9F7620F731F57
:0C272000841F951FA01D0895F894FFCFA2
:10272C000000460420000D000A005A004000800002
:10273C003C4145484548080808100810576869741A
:10274C006520746170652064657465637465642EBE
:10275C000A0D00426C61636B2074617065206465C6
:10276C00746563746564210A0D004C65667420629F
:10277C00756D706572207472696767657265642E19
:10278C000A0D0052696768742062756D706572205D
:10279C007472696767657265642E0A0D00426F7406
:1027AC00682062756D7065727320747269676765F5
:1027BC007265642E0A0D004C65667420636C696644
:1027CC00662073656E736F722074726967676572C9
:1027DC0065642E0A0D0046726F6E74206C6566740B
:1027EC0020636C6966662073656E736F72207472F9
:1027FC00696767657265642E0A0D0046726F6E74A8
:10280C0020726967687420636C6966662073656EF4
:10281C00736F72207472696767657265642E0A0D36
:10282C0000526967687420636C6966662073656E14
:10283C00736F72207472696767657265642E0A0D16
:10284C00004D6F76696E6720666F72776172642EC9
:10285C002E2E0A0D004D6F76696E67206261636BD8
:10286C00776172642E2E2E0A0D00526F746174699A
:10287C006E6720636F756E746572636C6F636B77D4
:10288C0069736520393020646567726565732E2E17
:10289C002E0A0D00526F746174696E6720636F7538
:1028AC006E746572636C6F636B7769736520313519
:1028BC0020646567726565732E2E2E0A0D00526FAB
:1028CC00746174696E6720636C6F636B7769736591
:1028DC0020393020646567726565732E2E2E0A0DC3
:1028EC0000526F746174696E6720636C6F636B77F1
:1028FC0069736520313520646567726565732E2EAA
:10290C002E0A0D005363616E6E696E672E2E2E0AB1
:10291C000D004F626A656374206174202564206425
:10292C006567726565732C20256420636D20617763
:10293C0061792C20256420636D20776964650A0D0C
:10294C00002A00464C3A2025642020204C3A2025B1
:10295C006420202020523A20256420202046523A20
:10296C002025640A0D00506C6179696E6720736FC5
:08297C006E672E2E2E0A0D00DD
:00000001FF
